{
  "_format": "hh-sol-artifact-1",
  "contractName": "CredentialRequest",
  "sourceName": "contracts/CredentialRequest.sol",
  "abi": [
    {
      "anonymous": false,
      "inputs": [
        {
          "indexed": true,
          "internalType": "uint256",
          "name": "requestId",
          "type": "uint256"
        }
      ],
      "name": "CredentialApproved",
      "type": "event"
    },
    {
      "anonymous": false,
      "inputs": [
        {
          "indexed": true,
          "internalType": "uint256",
          "name": "requestId",
          "type": "uint256"
        },
        {
          "indexed": false,
          "internalType": "address",
          "name": "requester",
          "type": "address"
        },
        {
          "indexed": false,
          "internalType": "string",
          "name": "credentialType",
          "type": "string"
        },
        {
          "indexed": false,
          "internalType": "string",
          "name": "enrollmentNumber",
          "type": "string"
        },
        {
          "indexed": false,
          "internalType": "string",
          "name": "verifierId",
          "type": "string"
        }
      ],
      "name": "CredentialRequested",
      "type": "event"
    },
    {
      "inputs": [
        {
          "internalType": "uint256",
          "name": "_requestId",
          "type": "uint256"
        }
      ],
      "name": "approveCredential",
      "outputs": [],
      "stateMutability": "nonpayable",
      "type": "function"
    },
    {
      "inputs": [
        {
          "internalType": "uint256",
          "name": "_requestId",
          "type": "uint256"
        }
      ],
      "name": "getCredential",
      "outputs": [
        {
          "internalType": "string",
          "name": "",
          "type": "string"
        },
        {
          "internalType": "string",
          "name": "",
          "type": "string"
        },
        {
          "internalType": "string",
          "name": "",
          "type": "string"
        },
        {
          "internalType": "address",
          "name": "",
          "type": "address"
        },
        {
          "internalType": "bool",
          "name": "",
          "type": "bool"
        }
      ],
      "stateMutability": "view",
      "type": "function"
    },
    {
      "inputs": [
        {
          "internalType": "string",
          "name": "_verifierId",
          "type": "string"
        }
      ],
      "name": "getPendingCredentialsForVerifier",
      "outputs": [
        {
          "internalType": "uint256[]",
          "name": "",
          "type": "uint256[]"
        }
      ],
      "stateMutability": "view",
      "type": "function"
    },
    {
      "inputs": [],
      "name": "requestCount",
      "outputs": [
        {
          "internalType": "uint256",
          "name": "",
          "type": "uint256"
        }
      ],
      "stateMutability": "view",
      "type": "function"
    },
    {
      "inputs": [
        {
          "internalType": "string",
          "name": "_credentialType",
          "type": "string"
        },
        {
          "internalType": "string",
          "name": "_enrollmentNumber",
          "type": "string"
        },
        {
          "internalType": "string",
          "name": "_verifierId",
          "type": "string"
        }
      ],
      "name": "requestCredential",
      "outputs": [],
      "stateMutability": "nonpayable",
      "type": "function"
    },
    {
      "inputs": [
        {
          "internalType": "uint256",
          "name": "",
          "type": "uint256"
        }
      ],
      "name": "requests",
      "outputs": [
        {
          "internalType": "string",
          "name": "credentialType",
          "type": "string"
        },
        {
          "internalType": "string",
          "name": "enrollmentNumber",
          "type": "string"
        },
        {
          "internalType": "string",
          "name": "verifierId",
          "type": "string"
        },
        {
          "internalType": "address",
          "name": "requester",
          "type": "address"
        },
        {
          "internalType": "bool",
          "name": "approved",
          "type": "bool"
        }
      ],
      "stateMutability": "view",
      "type": "function"
    }
  ],
  "bytecode": "0x6080604052348015600f57600080fd5b506120778061001f6000396000f3fe608060405234801561001057600080fd5b50600436106100625760003560e01c806320ed2edb146100675780635badbe4c146100835780636f3a4e2c146100a157806381d12c58146100bd5780638dd18d2d146100f1578063d11150d614610125575b600080fd5b610081600480360381019061007c9190611085565b610155565b005b61008b610311565b60405161009891906110c1565b60405180910390f35b6100bb60048036038101906100b69190611222565b610317565b005b6100d760048036038101906100d29190611085565b610540565b6040516100e89594939291906113a4565b60405180910390f35b61010b60048036038101906101069190611085565b61073b565b60405161011c9594939291906113a4565b60405180910390f35b61013f600480360381019061013a919061140c565b610a09565b60405161014c9190611513565b60405180910390f35b60008111801561016757506001548111155b6101a6576040517f08c379a000000000000000000000000000000000000000000000000000000000815260040161019d90611581565b60405180910390fd5b60008082815260200190815260200160002060030160149054906101000a900460ff1615610209576040517f08c379a0000000000000000000000000000000000000000000000000000000008152600401610200906115ed565b60405180910390fd5b61021233610c86565b6040516020016102229190611649565b6040516020818303038152906040528051906020012060008083815260200190815260200160002060020160405160200161025d9190611758565b60405160208183030381529060405280519060200120146102b3576040517f08c379a00000000000000000000000000000000000000000000000000000000081526004016102aa906117e1565b60405180910390fd5b600160008083815260200190815260200160002060030160146101000a81548160ff021916908315150217905550807fec114e9ae816a032a41de215f0b7b0d4ca11eefaa7f03295187035eecf67226360405160405180910390a250565b60015481565b600083511161035b576040517f08c379a00000000000000000000000000000000000000000000000000000000081526004016103529061184d565b60405180910390fd5b600082511161039f576040517f08c379a0000000000000000000000000000000000000000000000000000000008152600401610396906118df565b60405180910390fd5b60008151116103e3576040517f08c379a00000000000000000000000000000000000000000000000000000000081526004016103da9061194b565b60405180910390fd5b600160008154809291906103f69061199a565b91905055506040518060a001604052808481526020018381526020018281526020013373ffffffffffffffffffffffffffffffffffffffff16815260200160001515815250600080600154815260200190815260200160002060008201518160000190816104649190611b79565b50602082015181600101908161047a9190611b79565b5060408201518160020190816104909190611b79565b5060608201518160030160006101000a81548173ffffffffffffffffffffffffffffffffffffffff021916908373ffffffffffffffffffffffffffffffffffffffff16021790555060808201518160030160146101000a81548160ff0219169083151502179055509050506001547f8ca253bf831c6b41a18ab21968bfc1d152f6099ad6f08f0f41c0f1a8a8800455338585856040516105339493929190611c4b565b60405180910390a2505050565b60006020528060005260406000206000915090508060000180546105639061168f565b80601f016020809104026020016040519081016040528092919081815260200182805461058f9061168f565b80156105dc5780601f106105b1576101008083540402835291602001916105dc565b820191906000526020600020905b8154815290600101906020018083116105bf57829003601f168201915b5050505050908060010180546105f19061168f565b80601f016020809104026020016040519081016040528092919081815260200182805461061d9061168f565b801561066a5780601f1061063f5761010080835404028352916020019161066a565b820191906000526020600020905b81548152906001019060200180831161064d57829003601f168201915b50505050509080600201805461067f9061168f565b80601f01602080910402602001604051908101604052809291908181526020018280546106ab9061168f565b80156106f85780601f106106cd576101008083540402835291602001916106f8565b820191906000526020600020905b8154815290600101906020018083116106db57829003601f168201915b5050505050908060030160009054906101000a900473ffffffffffffffffffffffffffffffffffffffff16908060030160149054906101000a900460ff16905085565b606080606060008060008611801561075557506001548611155b610794576040517f08c379a000000000000000000000000000000000000000000000000000000000815260040161078b90611581565b60405180910390fd5b60008060008881526020019081526020016000206040518060a00160405290816000820180546107c39061168f565b80601f01602080910402602001604051908101604052809291908181526020018280546107ef9061168f565b801561083c5780601f106108115761010080835404028352916020019161083c565b820191906000526020600020905b81548152906001019060200180831161081f57829003601f168201915b505050505081526020016001820180546108559061168f565b80601f01602080910402602001604051908101604052809291908181526020018280546108819061168f565b80156108ce5780601f106108a3576101008083540402835291602001916108ce565b820191906000526020600020905b8154815290600101906020018083116108b157829003601f168201915b505050505081526020016002820180546108e79061168f565b80601f01602080910402602001604051908101604052809291908181526020018280546109139061168f565b80156109605780601f1061093557610100808354040283529160200191610960565b820191906000526020600020905b81548152906001019060200180831161094357829003601f168201915b505050505081526020016003820160009054906101000a900473ffffffffffffffffffffffffffffffffffffffff1673ffffffffffffffffffffffffffffffffffffffff1673ffffffffffffffffffffffffffffffffffffffff1681526020016003820160149054906101000a900460ff161515151581525050905080600001518160200151826040015183606001518460800151955095509550955095505091939590929450565b6060600060015467ffffffffffffffff811115610a2957610a286110f7565b5b604051908082528060200260200182016040528015610a575781602001602082028036833780820191505090505b509050600080600190505b6001548111610bda57610a7485610e43565b604051602001610a849190611649565b60405160208183030381529060405280519060200120610b406000808481526020019081526020016000206002018054610abd9061168f565b80601f0160208091040260200160405190810160405280929190818152602001828054610ae99061168f565b8015610b365780601f10610b0b57610100808354040283529160200191610b36565b820191906000526020600020905b815481529060010190602001808311610b1957829003601f168201915b5050505050610e43565b604051602001610b509190611649565b60405160208183030381529060405280519060200120148015610b93575060008082815260200190815260200160002060030160149054906101000a900460ff16155b15610bc75780838381518110610bac57610bab611ca5565b5b6020026020010181815250508180610bc39061199a565b9250505b8080610bd29061199a565b915050610a62565b5060008167ffffffffffffffff811115610bf757610bf66110f7565b5b604051908082528060200260200182016040528015610c255781602001602082028036833780820191505090505b50905060005b82811015610c7a57838181518110610c4657610c45611ca5565b5b6020026020010151828281518110610c6157610c60611ca5565b5b6020026020010181815250508080600101915050610c2b565b50809350505050919050565b60606000602867ffffffffffffffff811115610ca557610ca46110f7565b5b6040519080825280601f01601f191660200182016040528015610cd75781602001600182028036833780820191505090505b50905060005b6014811015610e39576000816013610cf59190611cd4565b6008610d019190611d08565b6002610d0d9190611e7d565b8573ffffffffffffffffffffffffffffffffffffffff16610d2e9190611ef7565b60f81b9050600060108260f81c610d459190611f35565b60f81b905060008160f81c6010610d5c9190611f66565b8360f81c610d6a9190611fa3565b60f81b9050610d7882610ff5565b85856002610d869190611d08565b81518110610d9757610d96611ca5565b5b60200101907effffffffffffffffffffffffffffffffffffffffffffffffffffffffffffff1916908160001a905350610dcf81610ff5565b856001866002610ddf9190611d08565b610de99190611fd8565b81518110610dfa57610df9611ca5565b5b60200101907effffffffffffffffffffffffffffffffffffffffffffffffffffffffffffff1916908160001a9053505050508080600101915050610cdd565b5080915050919050565b606060008290506000815167ffffffffffffffff811115610e6757610e666110f7565b5b6040519080825280601f01601f191660200182016040528015610e995781602001600182028036833780820191505090505b50905060005b8251811015610fea576041838281518110610ebd57610ebc611ca5565b5b602001015160f81c60f81b60f81c60ff1610158015610f005750605a838281518110610eec57610eeb611ca5565b5b602001015160f81c60f81b60f81c60ff1611155b15610f7c576020838281518110610f1a57610f19611ca5565b5b602001015160f81c60f81b60f81c610f32919061200c565b60f81b828281518110610f4857610f47611ca5565b5b60200101907effffffffffffffffffffffffffffffffffffffffffffffffffffffffffffff1916908160001a905350610fdd565b828181518110610f8f57610f8e611ca5565b5b602001015160f81c60f81b828281518110610fad57610fac611ca5565b5b60200101907effffffffffffffffffffffffffffffffffffffffffffffffffffffffffffff1916908160001a9053505b8080600101915050610e9f565b508092505050919050565b6000600a8260f81c60ff1610156110205760308260f81c611016919061200c565b60f81b9050611036565b60578260f81c611030919061200c565b60f81b90505b919050565b6000604051905090565b600080fd5b600080fd5b6000819050919050565b6110628161104f565b811461106d57600080fd5b50565b60008135905061107f81611059565b92915050565b60006020828403121561109b5761109a611045565b5b60006110a984828501611070565b91505092915050565b6110bb8161104f565b82525050565b60006020820190506110d660008301846110b2565b92915050565b600080fd5b600080fd5b6000601f19601f8301169050919050565b7f4e487b7100000000000000000000000000000000000000000000000000000000600052604160045260246000fd5b61112f826110e6565b810181811067ffffffffffffffff8211171561114e5761114d6110f7565b5b80604052505050565b600061116161103b565b905061116d8282611126565b919050565b600067ffffffffffffffff82111561118d5761118c6110f7565b5b611196826110e6565b9050602081019050919050565b82818337600083830152505050565b60006111c56111c084611172565b611157565b9050828152602081018484840111156111e1576111e06110e1565b5b6111ec8482856111a3565b509392505050565b600082601f830112611209576112086110dc565b5b81356112198482602086016111b2565b91505092915050565b60008060006060848603121561123b5761123a611045565b5b600084013567ffffffffffffffff8111156112595761125861104a565b5b611265868287016111f4565b935050602084013567ffffffffffffffff8111156112865761128561104a565b5b611292868287016111f4565b925050604084013567ffffffffffffffff8111156112b3576112b261104a565b5b6112bf868287016111f4565b9150509250925092565b600081519050919050565b600082825260208201905092915050565b60005b838110156113035780820151818401526020810190506112e8565b60008484015250505050565b600061131a826112c9565b61132481856112d4565b93506113348185602086016112e5565b61133d816110e6565b840191505092915050565b600073ffffffffffffffffffffffffffffffffffffffff82169050919050565b600061137382611348565b9050919050565b61138381611368565b82525050565b60008115159050919050565b61139e81611389565b82525050565b600060a08201905081810360008301526113be818861130f565b905081810360208301526113d2818761130f565b905081810360408301526113e6818661130f565b90506113f5606083018561137a565b6114026080830184611395565b9695505050505050565b60006020828403121561142257611421611045565b5b600082013567ffffffffffffffff8111156114405761143f61104a565b5b61144c848285016111f4565b91505092915050565b600081519050919050565b600082825260208201905092915050565b6000819050602082019050919050565b61148a8161104f565b82525050565b600061149c8383611481565b60208301905092915050565b6000602082019050919050565b60006114c082611455565b6114ca8185611460565b93506114d583611471565b8060005b838110156115065781516114ed8882611490565b97506114f8836114a8565b9250506001810190506114d9565b5085935050505092915050565b6000602082019050818103600083015261152d81846114b5565b905092915050565b7f496e76616c696420726571756573742049440000000000000000000000000000600082015250565b600061156b6012836112d4565b915061157682611535565b602082019050919050565b6000602082019050818103600083015261159a8161155e565b9050919050565b7f5265717565737420616c726561647920617070726f7665640000000000000000600082015250565b60006115d76018836112d4565b91506115e2826115a1565b602082019050919050565b60006020820190508181036000830152611606816115ca565b9050919050565b600081905092915050565b6000611623826112c9565b61162d818561160d565b935061163d8185602086016112e5565b80840191505092915050565b60006116558284611618565b915081905092915050565b7f4e487b7100000000000000000000000000000000000000000000000000000000600052602260045260246000fd5b600060028204905060018216806116a757607f821691505b6020821081036116ba576116b9611660565b5b50919050565b60008190508160005260206000209050919050565b600081546116e28161168f565b6116ec818661160d565b94506001821660008114611707576001811461171c5761174f565b60ff198316865281151582028601935061174f565b611725856116c0565b60005b8381101561174757815481890152600182019150602081019050611728565b838801955050505b50505092915050565b600061176482846116d5565b915081905092915050565b7f4f6e6c792061737369676e65642076657269666965722063616e20617070726f60008201527f7665000000000000000000000000000000000000000000000000000000000000602082015250565b60006117cb6022836112d4565b91506117d68261176f565b604082019050919050565b600060208201905081810360008301526117fa816117be565b9050919050565b7f43726564656e7469616c20747970652063616e6e6f7420626520656d70747900600082015250565b6000611837601f836112d4565b915061184282611801565b602082019050919050565b600060208201905081810360008301526118668161182a565b9050919050565b7f456e726f6c6c6d656e74206e756d6265722063616e6e6f7420626520656d707460008201527f7900000000000000000000000000000000000000000000000000000000000000602082015250565b60006118c96021836112d4565b91506118d48261186d565b604082019050919050565b600060208201905081810360008301526118f8816118bc565b9050919050565b7f56657269666965722049442063616e6e6f7420626520656d7074790000000000600082015250565b6000611935601b836112d4565b9150611940826118ff565b602082019050919050565b6000602082019050818103600083015261196481611928565b9050919050565b7f4e487b7100000000000000000000000000000000000000000000000000000000600052601160045260246000fd5b60006119a58261104f565b91507fffffffffffffffffffffffffffffffffffffffffffffffffffffffffffffffff82036119d7576119d661196b565b5b600182019050919050565b60006020601f8301049050919050565b600082821b905092915050565b600060088302611a2f7fffffffffffffffffffffffffffffffffffffffffffffffffffffffffffffffff826119f2565b611a3986836119f2565b95508019841693508086168417925050509392505050565b6000819050919050565b6000611a76611a71611a6c8461104f565b611a51565b61104f565b9050919050565b6000819050919050565b611a9083611a5b565b611aa4611a9c82611a7d565b8484546119ff565b825550505050565b600090565b611ab9611aac565b611ac4818484611a87565b505050565b5b81811015611ae857611add600082611ab1565b600181019050611aca565b5050565b601f821115611b2d57611afe816116c0565b611b07846119e2565b81016020851015611b16578190505b611b2a611b22856119e2565b830182611ac9565b50505b505050565b600082821c905092915050565b6000611b5060001984600802611b32565b1980831691505092915050565b6000611b698383611b3f565b9150826002028217905092915050565b611b82826112c9565b67ffffffffffffffff811115611b9b57611b9a6110f7565b5b611ba5825461168f565b611bb0828285611aec565b600060209050601f831160018114611be35760008415611bd1578287015190505b611bdb8582611b5d565b865550611c43565b601f198416611bf1866116c0565b60005b82811015611c1957848901518255600182019150602085019450602081019050611bf4565b86831015611c365784890151611c32601f891682611b3f565b8355505b6001600288020188555050505b505050505050565b6000608082019050611c60600083018761137a565b8181036020830152611c72818661130f565b90508181036040830152611c86818561130f565b90508181036060830152611c9a818461130f565b905095945050505050565b7f4e487b7100000000000000000000000000000000000000000000000000000000600052603260045260246000fd5b6000611cdf8261104f565b9150611cea8361104f565b9250828203905081811115611d0257611d0161196b565b5b92915050565b6000611d138261104f565b9150611d1e8361104f565b9250828202611d2c8161104f565b91508282048414831517611d4357611d4261196b565b5b5092915050565b60008160011c9050919050565b6000808291508390505b6001851115611da157808604811115611d7d57611d7c61196b565b5b6001851615611d8c5780820291505b8081029050611d9a85611d4a565b9450611d61565b94509492505050565b600082611dba5760019050611e76565b81611dc85760009050611e76565b8160018114611dde5760028114611de857611e17565b6001915050611e76565b60ff841115611dfa57611df961196b565b5b8360020a915084821115611e1157611e1061196b565b5b50611e76565b5060208310610133831016604e8410600b8410161715611e4c5782820a905083811115611e4757611e4661196b565b5b611e76565b611e598484846001611d57565b92509050818404811115611e7057611e6f61196b565b5b81810290505b9392505050565b6000611e888261104f565b9150611e938361104f565b9250611ec07fffffffffffffffffffffffffffffffffffffffffffffffffffffffffffffffff8484611daa565b905092915050565b7f4e487b7100000000000000000000000000000000000000000000000000000000600052601260045260246000fd5b6000611f028261104f565b9150611f0d8361104f565b925082611f1d57611f1c611ec8565b5b828204905092915050565b600060ff82169050919050565b6000611f4082611f28565b9150611f4b83611f28565b925082611f5b57611f5a611ec8565b5b828204905092915050565b6000611f7182611f28565b9150611f7c83611f28565b9250828202611f8a81611f28565b9150808214611f9c57611f9b61196b565b5b5092915050565b6000611fae82611f28565b9150611fb983611f28565b9250828203905060ff811115611fd257611fd161196b565b5b92915050565b6000611fe38261104f565b9150611fee8361104f565b92508282019050808211156120065761200561196b565b5b92915050565b600061201782611f28565b915061202283611f28565b9250828201905060ff81111561203b5761203a61196b565b5b9291505056fea26469706673582212209390d7ea6655338e8dc36e00bc03583a354bfaaf551bfcfb0b8db917e150c02d64736f6c634300081c0033",
  "linkReferences": {},
  "deployedLinkReferences": {}
}