{
  "_format": "hh-sol-artifact-1",
  "contractName": "CredentialRequest",
  "sourceName": "contracts/CredentialRequest.sol",
  "abi": [
    {
      "anonymous": false,
      "inputs": [
        {
          "indexed": true,
          "internalType": "uint256",
          "name": "requestId",
          "type": "uint256"
        }
      ],
      "name": "CredentialApproved",
      "type": "event"
    },
    {
      "anonymous": false,
      "inputs": [
        {
          "indexed": true,
          "internalType": "uint256",
          "name": "requestId",
          "type": "uint256"
        },
        {
          "indexed": false,
          "internalType": "address",
          "name": "requester",
          "type": "address"
        },
        {
          "indexed": false,
          "internalType": "string",
          "name": "credentialType",
          "type": "string"
        },
        {
          "indexed": false,
          "internalType": "string",
          "name": "enrollmentNumber",
          "type": "string"
        },
        {
          "indexed": false,
          "internalType": "string",
          "name": "verifierId",
          "type": "string"
        }
      ],
      "name": "CredentialRequested",
      "type": "event"
    },
    {
      "inputs": [
        {
          "internalType": "uint256",
          "name": "_requestId",
          "type": "uint256"
        }
      ],
      "name": "approveCredential",
      "outputs": [],
      "stateMutability": "nonpayable",
      "type": "function"
    },
    {
      "inputs": [
        {
          "internalType": "uint256",
          "name": "_requestId",
          "type": "uint256"
        }
      ],
      "name": "getCredential",
      "outputs": [
        {
          "internalType": "string",
          "name": "",
          "type": "string"
        },
        {
          "internalType": "string",
          "name": "",
          "type": "string"
        },
        {
          "internalType": "string",
          "name": "",
          "type": "string"
        },
        {
          "internalType": "address",
          "name": "",
          "type": "address"
        },
        {
          "internalType": "bool",
          "name": "",
          "type": "bool"
        }
      ],
      "stateMutability": "view",
      "type": "function"
    },
    {
      "inputs": [],
      "name": "requestCount",
      "outputs": [
        {
          "internalType": "uint256",
          "name": "",
          "type": "uint256"
        }
      ],
      "stateMutability": "view",
      "type": "function"
    },
    {
      "inputs": [
        {
          "internalType": "string",
          "name": "_credentialType",
          "type": "string"
        },
        {
          "internalType": "string",
          "name": "_enrollmentNumber",
          "type": "string"
        },
        {
          "internalType": "string",
          "name": "_verifierId",
          "type": "string"
        }
      ],
      "name": "requestCredential",
      "outputs": [],
      "stateMutability": "nonpayable",
      "type": "function"
    },
    {
      "inputs": [
        {
          "internalType": "uint256",
          "name": "",
          "type": "uint256"
        }
      ],
      "name": "requests",
      "outputs": [
        {
          "internalType": "string",
          "name": "credentialType",
          "type": "string"
        },
        {
          "internalType": "string",
          "name": "enrollmentNumber",
          "type": "string"
        },
        {
          "internalType": "string",
          "name": "verifierId",
          "type": "string"
        },
        {
          "internalType": "address",
          "name": "requester",
          "type": "address"
        },
        {
          "internalType": "bool",
          "name": "approved",
          "type": "bool"
        }
      ],
      "stateMutability": "view",
      "type": "function"
    }
  ],
  "bytecode": "0x6080604052348015600f57600080fd5b506110198061001f6000396000f3fe608060405234801561001057600080fd5b50600436106100575760003560e01c806320ed2edb1461005c5780635badbe4c146100785780636f3a4e2c1461009657806381d12c58146100b25780638dd18d2d146100e6575b600080fd5b61007660048036038101906100719190610841565b61011a565b005b61008061021c565b60405161008d919061087d565b60405180910390f35b6100b060048036038101906100ab91906109de565b610222565b005b6100cc60048036038101906100c79190610841565b61037f565b6040516100dd959493929190610b60565b60405180910390f35b61010060048036038101906100fb9190610841565b61057a565b604051610111959493929190610b60565b60405180910390f35b600073ffffffffffffffffffffffffffffffffffffffff1660008083815260200190815260200160002060030160009054906101000a900473ffffffffffffffffffffffffffffffffffffffff1673ffffffffffffffffffffffffffffffffffffffff16036101be576040517f08c379a00000000000000000000000000000000000000000000000000000000081526004016101b590610c14565b60405180910390fd5b600160008083815260200190815260200160002060030160146101000a81548160ff021916908315150217905550807fec114e9ae816a032a41de215f0b7b0d4ca11eefaa7f03295187035eecf67226360405160405180910390a250565b60015481565b6001600081548092919061023590610c63565b91905055506040518060a001604052808481526020018381526020018281526020013373ffffffffffffffffffffffffffffffffffffffff16815260200160001515815250600080600154815260200190815260200160002060008201518160000190816102a39190610eb7565b5060208201518160010190816102b99190610eb7565b5060408201518160020190816102cf9190610eb7565b5060608201518160030160006101000a81548173ffffffffffffffffffffffffffffffffffffffff021916908373ffffffffffffffffffffffffffffffffffffffff16021790555060808201518160030160146101000a81548160ff0219169083151502179055509050506001547f8ca253bf831c6b41a18ab21968bfc1d152f6099ad6f08f0f41c0f1a8a8800455338585856040516103729493929190610f89565b60405180910390a2505050565b60006020528060005260406000206000915090508060000180546103a290610cda565b80601f01602080910402602001604051908101604052809291908181526020018280546103ce90610cda565b801561041b5780601f106103f05761010080835404028352916020019161041b565b820191906000526020600020905b8154815290600101906020018083116103fe57829003601f168201915b50505050509080600101805461043090610cda565b80601f016020809104026020016040519081016040528092919081815260200182805461045c90610cda565b80156104a95780601f1061047e576101008083540402835291602001916104a9565b820191906000526020600020905b81548152906001019060200180831161048c57829003601f168201915b5050505050908060020180546104be90610cda565b80601f01602080910402602001604051908101604052809291908181526020018280546104ea90610cda565b80156105375780601f1061050c57610100808354040283529160200191610537565b820191906000526020600020905b81548152906001019060200180831161051a57829003601f168201915b5050505050908060030160009054906101000a900473ffffffffffffffffffffffffffffffffffffffff16908060030160149054906101000a900460ff16905085565b606080606060008060008060008881526020019081526020016000206040518060a00160405290816000820180546105b190610cda565b80601f01602080910402602001604051908101604052809291908181526020018280546105dd90610cda565b801561062a5780601f106105ff5761010080835404028352916020019161062a565b820191906000526020600020905b81548152906001019060200180831161060d57829003601f168201915b5050505050815260200160018201805461064390610cda565b80601f016020809104026020016040519081016040528092919081815260200182805461066f90610cda565b80156106bc5780601f10610691576101008083540402835291602001916106bc565b820191906000526020600020905b81548152906001019060200180831161069f57829003601f168201915b505050505081526020016002820180546106d590610cda565b80601f016020809104026020016040519081016040528092919081815260200182805461070190610cda565b801561074e5780601f106107235761010080835404028352916020019161074e565b820191906000526020600020905b81548152906001019060200180831161073157829003601f168201915b505050505081526020016003820160009054906101000a900473ffffffffffffffffffffffffffffffffffffffff1673ffffffffffffffffffffffffffffffffffffffff1673ffffffffffffffffffffffffffffffffffffffff1681526020016003820160149054906101000a900460ff161515151581525050905080600001518160200151826040015183606001518460800151955095509550955095505091939590929450565b6000604051905090565b600080fd5b600080fd5b6000819050919050565b61081e8161080b565b811461082957600080fd5b50565b60008135905061083b81610815565b92915050565b60006020828403121561085757610856610801565b5b60006108658482850161082c565b91505092915050565b6108778161080b565b82525050565b6000602082019050610892600083018461086e565b92915050565b600080fd5b600080fd5b6000601f19601f8301169050919050565b7f4e487b7100000000000000000000000000000000000000000000000000000000600052604160045260246000fd5b6108eb826108a2565b810181811067ffffffffffffffff8211171561090a576109096108b3565b5b80604052505050565b600061091d6107f7565b905061092982826108e2565b919050565b600067ffffffffffffffff821115610949576109486108b3565b5b610952826108a2565b9050602081019050919050565b82818337600083830152505050565b600061098161097c8461092e565b610913565b90508281526020810184848401111561099d5761099c61089d565b5b6109a884828561095f565b509392505050565b600082601f8301126109c5576109c4610898565b5b81356109d584826020860161096e565b91505092915050565b6000806000606084860312156109f7576109f6610801565b5b600084013567ffffffffffffffff811115610a1557610a14610806565b5b610a21868287016109b0565b935050602084013567ffffffffffffffff811115610a4257610a41610806565b5b610a4e868287016109b0565b925050604084013567ffffffffffffffff811115610a6f57610a6e610806565b5b610a7b868287016109b0565b9150509250925092565b600081519050919050565b600082825260208201905092915050565b60005b83811015610abf578082015181840152602081019050610aa4565b60008484015250505050565b6000610ad682610a85565b610ae08185610a90565b9350610af0818560208601610aa1565b610af9816108a2565b840191505092915050565b600073ffffffffffffffffffffffffffffffffffffffff82169050919050565b6000610b2f82610b04565b9050919050565b610b3f81610b24565b82525050565b60008115159050919050565b610b5a81610b45565b82525050565b600060a0820190508181036000830152610b7a8188610acb565b90508181036020830152610b8e8187610acb565b90508181036040830152610ba28186610acb565b9050610bb16060830185610b36565b610bbe6080830184610b51565b9695505050505050565b7f5265717565737420646f6573206e6f7420657869737400000000000000000000600082015250565b6000610bfe601683610a90565b9150610c0982610bc8565b602082019050919050565b60006020820190508181036000830152610c2d81610bf1565b9050919050565b7f4e487b7100000000000000000000000000000000000000000000000000000000600052601160045260246000fd5b6000610c6e8261080b565b91507fffffffffffffffffffffffffffffffffffffffffffffffffffffffffffffffff8203610ca057610c9f610c34565b5b600182019050919050565b7f4e487b7100000000000000000000000000000000000000000000000000000000600052602260045260246000fd5b60006002820490506001821680610cf257607f821691505b602082108103610d0557610d04610cab565b5b50919050565b60008190508160005260206000209050919050565b60006020601f8301049050919050565b600082821b905092915050565b600060088302610d6d7fffffffffffffffffffffffffffffffffffffffffffffffffffffffffffffffff82610d30565b610d778683610d30565b95508019841693508086168417925050509392505050565b6000819050919050565b6000610db4610daf610daa8461080b565b610d8f565b61080b565b9050919050565b6000819050919050565b610dce83610d99565b610de2610dda82610dbb565b848454610d3d565b825550505050565b600090565b610df7610dea565b610e02818484610dc5565b505050565b5b81811015610e2657610e1b600082610def565b600181019050610e08565b5050565b601f821115610e6b57610e3c81610d0b565b610e4584610d20565b81016020851015610e54578190505b610e68610e6085610d20565b830182610e07565b50505b505050565b600082821c905092915050565b6000610e8e60001984600802610e70565b1980831691505092915050565b6000610ea78383610e7d565b9150826002028217905092915050565b610ec082610a85565b67ffffffffffffffff811115610ed957610ed86108b3565b5b610ee38254610cda565b610eee828285610e2a565b600060209050601f831160018114610f215760008415610f0f578287015190505b610f198582610e9b565b865550610f81565b601f198416610f2f86610d0b565b60005b82811015610f5757848901518255600182019150602085019450602081019050610f32565b86831015610f745784890151610f70601f891682610e7d565b8355505b6001600288020188555050505b505050505050565b6000608082019050610f9e6000830187610b36565b8181036020830152610fb08186610acb565b90508181036040830152610fc48185610acb565b90508181036060830152610fd88184610acb565b90509594505050505056fea26469706673582212209e031e53509816156a721a359a18f1fe39670f25f963e5ce3c006133736c1c1164736f6c634300081c0033",
  "linkReferences": {},
  "deployedLinkReferences": {}
}